:060000000A128A11F42E21
:100DE800F801F901FA01FB01A001A101A201A30187
:100DF800A401A501A601A701A801A90183010A125E
:100E08008A11A42F082F082F0130F0020030031C8C
:100E1800F103F102FF307106031D142FFF30700635
:100E2800031D172F182F082F192F080083120313DB
:100E38000915E830F0000330F1000A128A1106277C
:100E48000A128A11831203130911E830F0000330E3
:100E5800F1000A128A1106270A128A110800F50001
:100E68007518372F3B2F8312031309143E2F831253
:100E7800031309107218412F452F83120313891485
:100E8800482F831203138910730886000A128A11E7
:100E98001A270A128A117308F40003300310F40D9C
:100EA800FF3E031D522F0310740D83120313860097
:100EB8000A128A111A270A128A1108007A2F642F37
:100EC800831203138C1D692F6A2F642F8C1113084A
:100ED800F6007808203E84007608831380000130ED
:100EE800F8070318F90A0030F9077A2F8312031359
:100EF8009308031D802F812F642F992F992FF201BA
:100F08007A08203E840083130008F6007608F30070
:100F180001300A128A1133270A128A110130FA079E
:100F28000318FB0A0030FB07992F7A08203E84003B
:100F380083138008031DA12FA22F832FA32F08003E
:100F4800831203138501203083160313850083124F
:100F580003138701183083160313870083120313C2
:100F680086018316031386018312031389018316EE
:100F7800031389018316031788018901F2010230DE
:100F8800F7007708F30000300A128A1133270A1293
:100F98008A11F2012830F7007708F30000300A12AE
:100FA8008A1133270A128A11F2010F30F7007708E5
:100FB800F30000300A128A1133270A128A11F2014B
:100FC8008030F7007708F30000300A128A113327BF
:100FD8000A128A1134308312031394008316031300
:100FE8009401F62F0A128A1162270A128A11F62F23
:080FF800F62F0A128A110028ED
:00000001FF
