:060000000A128A11682FAC
:100E68000A128A117E270A128A110A128A11B327D6
:100E78000A128A11342F342F0A128A1100287E0888
:100E88008A007F08820043270A128A118000840A98
:100E980004087D0603190034FF0A0319FE0A472FC8
:100EA8003F3406345B344F3466346D347D34073454
:100EB8007F346F340034003400340034003400349C
:100EC8000034003400340034F001F101F201F30180
:100ED80083133430FD000730FE005430FF0020300B
:100EE80084000A128A1147270A128A1183010A12FA
:100EF8008A11342F203083160313850083120313BD
:100F080085011830831603138700831203138701A2
:100F180083160313880183120313880183160317AA
:100F28008801890134308312031394008316031354
:100F38009401141CA02FA12FB22F14108312031395
:100F48001308F400F5017408F2007508F30072083C
:100F5800203E8400831300088800B22F08008316FF
:100F680003138501831203138501831603130708EE
:100F78008312031387010130831603138900831238
:100F880003138901831603178801890130308312FE
:100F98000313940080308316031394008312031301
:100FA800091CD72FD82FE52F0130F0070318F10AB5
:100FB8000030F107DF2F0518E22FE32FDF2FE52F91
:100FC800E52F7108803AFF0080307F02031DEE2F65
:100FD8000A307002031CF12FF22FF52FF001F101F6
:100FE800F52F7008831203139300FA2F8C1DFD2F21
:080FF800FE2FFA2F8C110800F6
:00000001FF
