:060000000A128A11172FFD
:100E2E00F001F10183010A128A111D2F831203139F
:100E3E008701831603138701831203138801831618
:100E4E0003138801073081002C2F0A128A113627CE
:100E5E000A128A112C2F2C2F0A128A1100280B1D10
:100E6E00392F3A2F422F0130F0070318F10A0030C4
:100E7E00F1070B11422FF11B452F462F592F7108E9
:100E8E00803AFF0080307F02031D4F2FE130700249
:100E9E000318522F532F592F831203130714871041
:100EAE000711592F7108803AFF0080307F02031D11
:100EBE00622F96307002031C652F662F782F7108F3
:100ECE00803AFF0080307F02031D6F2FE1307002E9
:100EDE000318722F732F782F8312031308108814A0
:100EEE000811F11B7B2F7C2F8F2F7108803AFF008A
:100EFE0080307F02031D852F963070020318882FD5
:100F0E00892F8F2F831203130810881008158F2F27
:100F1E007108803AFF0080307F02031D982FE13068
:100F2E007002031C9B2F9C2FAF2F7108803AFF007D
:100F3E0081307F02031DA52FC23070020318A82F27
:100F4E00A92FAF2F83120313081488100811AF2F87
:100F5E007108803AFF0081307F02031DB82F773071
:100F6E007002031CBB2FBC2FCF2F7108803AFF00DD
:100F7E0081307F02031DC52FC23070020318C82FA7
:100F8E00C92FCF2F83120313071087140711CF2FEA
:100F9E007108803AFF0080307F02031DD82FE130A8
:100FAE007002031CDB2FDC2FEF2F7108803AFF003D
:100FBE0081307F02031DE52F773070020318E82F72
:100FCE00E92FEF2F83120313071087100715EF2F4A
:100FDE007108803AFF0081307F02031DF82FC23066
:100FEE007002031CFB2FFC2FFF2FF001F101FF2FCE
:020FFE000800E9
:00000001FF
