:060000000A128A114E2FC6
:100E9C0083010A128A11662F542F542F0130F0024D
:100EAC000030031CF103F102FF307106031D602FAB
:100EBC00FF307006031D632F642F542F652F08001D
:100ECC0083120313850183160313850183160317FD
:100EDC0088018901712F0330F5000030F6000430D1
:100EEC00F9000030FA00A92F0130F200790A802FA6
:100EFC000310F20DFF3E031D7E2F0130F300750A27
:100F0C00892F0310F30DFF3E031D872F7308720406
:100F1C00F40074088312031385046030F000EA3087
:100F2C00F1000A128A1152270A128A11FF30F507B2
:100F3C000318F60AFF30F6070130F9070318FA0A0E
:100F4C000030FA07A92F7A08803AFF0080307F0220
:100F5C00031DB22F08307902031CB52FB62F7A2F40
:100F6C00B72FF701F8010730FB000030FC00ED2F24
:100F7C000130F200770AC42F0310F20DFF3E031D5F
:100F8C00C22F0130F3007B0ACD2F0310F30DFF3E6F
:100F9C00031DCB2F73087204F4007408831203131F
:100FAC0085066030F000EA30F1000A128A115227EF
:100FBC000A128A110130F7070318F80A0030F807F3
:100FCC00FF30FB070318FC0AFF30FC07ED2F7C08F1
:100FDC00803AFF0080307F02031DF62F04307B0225
:100FEC000318F92FFA2FBE2F712F712F712F0A12A0
:040FFC008A1100282E
:00000001FF
