:060000000A128A115E2FB6
:100EBC0083010A128A11622FF001F10183120313CC
:100ECC008601831603138601831603178801890193
:100EDC008312031387013F30831603138700762F89
:100EEC008312071C7A2F7B2F8F2F71087004031D20
:100EFC00802F812F8F2F7008013EF000710803188E
:100F0C00013E003EF1008A2F07188D2F8E2F8A2F5D
:100F1C008F2F071D922F932FA82F0130700671046D
:100F2C00031D992F9A2FA82F7008023EF00071080C
:100F3C000318013E003EF100A32F0719A62FA72F7F
:100F4C00A32FA82F871CAB2FAC2FC12F03307006FB
:100F5C007104031DB22FB32FC12F7008033EF00094
:100F6C0071080318013E003EF100BC2F8718BF2FFB
:100F7C00C02FBC2FC12F871DC42FC52FDA2F0630D1
:100F8C0070067104031DCB2FCC2FDA2F7008043E92
:100F9C00F00071080318013E003EF100D52F8719AF
:100FAC00D82FD92FD52FDA2F071EDD2FDE2FED2FBF
:100FBC000A3070067104031DE42FE52FED2F01306C
:100FCC008600E82F071AEB2FEC2FE82FED2F871E4A
:100FDC00F02FF12F762FF001F1018601F52F871AF2
:100FEC00F82FF92FF52F762F762F762F762F0A12D2
:040FFC008A1100282E
:00000001FF
