:060000000A128A11B22E63
:100D640083010A128A11522FB72E831203138C1D8A
:100D7400BC2EBD2EB72E8C1108008316031311143C
:100D84000A128A11B6260A128A110800831603135E
:100D940011150A128A11B6260A128A11080083163E
:100DA400031391140A128A11B6260A128A11080032
:100DB400DC2EDC2E0130F0020030031CF103F102C2
:100DC400FF307106031DE82EFF307006031DEB2E65
:100DD400EC2EDC2EED2E0800F00083160313111701
:100DE4007008831203139300F72E83160313111B49
:100DF400FC2EFD2EF72EFE2E0A128A11B6260A129A
:100E04008A11080071087004031D092F0A2F0F2F7F
:100E14008316031391160F2F0F2F83160313141C1D
:100E2400142F152F0F2F162F831203131308F200FC
:100E34007208F300141383160313111614107308A5
:100E4400232F0800F4007418282F2C2F8312031367
:100E540009142F2F8312031309107218322F362FFF
:100E6400831203138914392F83120313891073080F
:100E7400880009156430F0000030F1000A128A116C
:100E8400DA260A128A118312031309116430F0005E
:100E94000030F1000A128A11DA260A128A110800B7
:100EA40018308316031387008312031387018316F4
:100EB4000313880183120313880183160313890122
:100EC400831203138901831603178801890183168A
:100ED400031394172830831203139400F20138305B
:100EE400F5007508F30000300A128A1124270A124B
:100EF4008A11F2010E30F5007508F30000300A1271
:100F04008A1124270A128A110A128A11BF260A1288
:100F14008A11D0300A128A11EE260A128A11003080
:100F24000A128A11EE260A128A1141300A128A1113
:100F3400EE260A128A110A128A11C8260A128A1186
:100F4400E830F0000330F1000A128A11DA260A129E
:100F54008A11AC2F0A128A11BF260A128A11D030C4
:100F64000A128A11EE260A128A1100300A128A1114
:100F7400EE260A128A110A128A11D1260A128A113D
:100F8400D1300A128A11EE260A128A11831603132B
:100F940091150030F0000030F1000A128A11042784
:100FA4000A128A11F5007508F6000A128A11C82679
:100FB4000A128A11F2018030F5007508F30000303E
:100FC4000A128A1124270A128A11F2017608F500FE
:100FD4007508F30001300A128A1124270A128A11B3
:100FE400E830F0000330F1000A128A11DA260A12FE
:0C0FF4008A11AC2FAC2F0A128A110028C1
:00000001FF
