:060000000A128A11952D81
:100B08007E088A007F08820084250A128A118000E4
:100B1800840A04087D0603190034FF0A0319FE0A33
:100B2800882D83135830FD000530FE00BB30FF00D0
:100B3800443084000A128A1188250A128A11830116
:100B48000A128A11A92EA92DA92D0130F002003010
:100B5800031CF103F102FF307106031DB52DFF30B0
:100B68007006031DB82DB92DA92DBA2D08003F34E4
:100B780006345B344F3466346D347D3407347F3447
:100B88006F3400340034003400340034003400344E
:100B9800003400340034F601F31FD32DD42DDD2D9D
:100BA800F209F309F20A0319F30AF6010314F60D20
:100BB800DD2DF11FE02DE12DE72DF009F109F00AF7
:100BC8000319F10AE72D710870040319EC2DED2DB6
:100BD800232EF5010314F50DFD2D01300310F00D42
:100BE800F10DFF3E031DF22D0130F4007408F507E6
:100BF800FD2DF11F002E012EF12D032E032E71085D
:100C08007302031D092E70087202031C0C2E0D2E90
:100C1800142E7008F2027108031CF303F302142E59
:100C280001300310F10CF00CFF3E031D152E0130AE
:100C3800F502031D202E212E032E232E232E7608A7
:100C4800031D272E2D2EF209F309F20A0319F30AC0
:100C58002D2E7308F101F1077208F001F007342E08
:100C68000800F601F11F392E3A2E432EF009F1093A
:100C7800F00A0319F10AF6010314F60D432EF31FC7
:100C8800462E472E512EF209F309F20A0319F30AE8
:100C98000130F4007408F606512EF701F8017108C6
:100CA80070040319582E592E972EF5010314F50DCB
:100CB800692E01300310F00DF10DFF3E031D5E2E6D
:100CC8000130F4007408F507692EF11F6C2E6D2EA3
:100CD8005D2E6F2E6F2E01300310F70DF80DFF3EBD
:100CE800031D702E71087302031D7C2E700872029A
:100CF800031C7F2E802E882E7008F2027108031CB8
:100D0800F303F3027714882E01300310F10CF00C72
:100D1800FF3E031D892E0130F502031D942E952EEA
:100D28006F2E972E972E7608031D9B2EA12EF7095E
:100D3800F809F70A0319F80AA12E7808F101F10752
:100D48007708F001F007A82E08002030840044300E
:100D5800F9000408FA001430FB00790884008313B2
:100D68000008FC00F90A7A0884007C088000FA0A66
:100D7800FB0BB12E8316031387018312031387011C
:100D8800831603138801831203138801CB2E831261
:100D98000313C201C3014308803AFF0085307F0274
:100DA800031DD82EA1304202031CDB2EDC2EDE2EC2
:100DB800CB2ECB2E5830F0000230F10083120313F3
:100DC8004308F301F3074208F201F2070A128A11F5
:100DD80035260A128A11710883120313B501B50763
:100DE8007008B401B4075830F0000230F10043082D
:100DF800F301F3074208F201F2070A128A11CF251C
:100E08000A128A11710883120313BD01BD07700805
:100E1800BC01BC073C30F0000030F1003D08F30194
:100E2800F3073C08F201F2070A128A1135260A1262
:100E38008A11710883120313B701B7077008B60146
:100E4800B6073C30F0000030F1003D08F301F3072D
:100E58003C08F201F2070A128A11CF250A128A11F8
:100E6800710883120313BF01BF077008BE01BE07D4
:100E78000A30F0000030F1003F08F301F3073E08A4
:100E8800F201F2070A128A1135260A128A1171082C
:100E980083120313B901B9077008B801B8070A30FB
:100EA800F0000030F1003F08F301F3073E08F201BB
:100EB800F2070A128A11CF250A128A1171088312C1
:100EC8000313BB01BB077008BA01BA07C001C1010F
:100ED8004108803AFF0080307F02031D752F0530DE
:100EE8004002031C782F792F7B2FE52FE52F8312E3
:100EF800031308108814081588153408203E840048
:100F08008313000887008430F0000330F1000A12D0
:100F18008A11A7250A128A1183120313081488104C
:100F2800081588153608203E8400831300088700BA
:100F38008430F0000330F1000A128A11A7250A1242
:100F48008A118312031308148814081188153808A5
:100F5800203E84008313000887008430F0000330AB
:100F6800F1000A128A11A7250A128A1183120313A3
:100F780008148814081588113A08203E8400831341
:100F8800000887008430F0000330F1000A128A114B
:100F9800A7250A128A11013083120313C007031808
:100FA800C10A0030C1074108803AFF0080307F0243
:100FB800031DE02F05304002031CE32FE42F7B2F95
:100FC800E52F013083120313C2070318C30A003048
:100FD800C3074308803AFF0085307F02031DF62FC0
:100FE800A1304202031CF92FFA2FDE2ECB2ECB2E76
:080FF800CB2E0A128A11002819
:00000001FF
