:060000000A128A11232FF1
:100E24007E088A007F08820012270A128A11800035
:100E3400840A04087D0603190034FF0A0319FE0A14
:100E4400162F83134C30FD000730FE004930FF009D
:100E5400383084000A128A1116270A128A11830173
:100E64000A128A115D2F372F372F0130F00200301C
:100E7400031CF103F102FF307106031D432FFF3001
:100E84007006031D462F472F372F482F08003F3485
:100E940006345B344F3466346D347D3407347F3428
:100EA4006F3400340034003400340034003400342F
:100EB400003400340034203084003830F200040858
:100EC400F3001430F4007208840083130008F50062
:100ED400F20A7308840075088000F30AF40B652F86
:100EE40083120313870103308316031387008312CD
:100EF40003138601831603138601831603178801DF
:100F04008901842F83120313071C892F8A2FCA2F68
:100F1400B401B5013508803AFF0080307F02031D1B
:100F2400952F0A303402031C982F992F9B2FC32F1F
:100F3400C32F831203133408203E84008313000854
:100F440086002030F0004E30F1000A128A11352755
:100F54000A128A11013083120313B4070318B50A65
:100F64000030B5073508803AFF0080307F02031D4A
:100F7400BD2F0A303402031CC02FC12F9B2FC32F57
:100F8400C32F831203130718C82FC92FC32FCA2FC7
:100F9400871CCD2FCE2F842F0930B6000030B70028
:100FA400B71FD52FD62FD82FF52FF52F3608203E73
:100FB40084008313000886002030F0004E30F100D6
:100FC4000A128A1135270A128A11FF308312031379
:100FD400B6070318B70AFF30B707B71FF22FF32F6E
:100FE400D82FF52FF52F8718F82FF92FF52F842FE9
:0C0FF400842F842F842F0A128A110028F9
:00000001FF
