:060000000A128A11042E11
:100BE6007E088A007F088200F3250A128A11800097
:100BF600840A04087D0603190034FF0A0319FE0A55
:100C0600F72D83135430FD000630FE002A30FF0016
:100C1600403084000A128A11F7250A128A118301CC
:100C26000A128A11182F182E182E0130F0020030E1
:100C3600031CF103F102FF307106031D242EFF3061
:100C46007006031D272E282E182E292E08003F3445
:100C560006345B344F3466346D347D3407347F3468
:100C66006F3400340034003400340034003400346F
:100C7600003400340034F601F31F422E432E4C2E6E
:100C8600F209F309F20A0319F30AF6010314F60D41
:100C96004C2EF11F4F2E502E562EF009F109F00A58
:100CA6000319F10A562E7108700403195B2E5C2E87
:100CB600922EF5010314F50D6C2E01300310F00D84
:100CC600F10DFF3E031D612E0130F4007408F50797
:100CD6006C2EF11F6F2E702E602E722E722E7108E2
:100CE6007302031D782E70087202031C7B2E7C2E65
:100CF600832E7008F2027108031CF303F302832E9D
:100D060001300310F10CF00CFF3E031D842E013060
:100D1600F502031D8F2E902E722E922E922E76089D
:100D2600031D962E9C2EF209F309F20A0319F30A03
:100D36009C2E7308F101F1077208F001F007A32E4B
:100D46000800F601F11FA82EA92EB22EF009F1090E
:100D5600F00A0319F10AF6010314F60DB22EF31F79
:100D6600B52EB62EC02EF209F309F20A0319F30ABC
:100D76000130F4007408F606C02EF701F801710878
:100D860070040319C72EC82E062FF5010314F50D9E
:100D9600D82E01300310F00DF10DFF3E031DCD2EB0
:100DA6000130F4007408F507D82EF11FDB2EDC2E77
:100DB600CC2EDE2EDE2E01300310F70DF80DFF3E91
:100DC600031DDF2E71087302031DEB2E70087202DD
:100DD600031CEE2EEF2EF72E7008F2027108031C8C
:100DE600F303F3027714F72E01300310F10CF00C25
:100DF600FF3E031DF82E0130F502031D032F042FBD
:100E0600DE2E062F062F7608031D0A2F102FF70950
:100E1600F809F70A0319F80A102F7808F101F10703
:100E26007708F001F007172F0800203084004030C3
:100E3600F9000408FA001430FB00790884008313D3
:100E46000008FC00F90A7A0884007C088000FA0A87
:100E5600FB0B202F831603138601831203138601CF
:100E66008316031388018312031388013A2FBC01EA
:100E7600BD016330BE000030BF00F62F0A30F0001F
:100E86000030F1003D08F301F3073C08F201F207D8
:100E96000A128A11A4260A128A11710883120313F0
:100EA600B501B5077008B401B4070A30F000003088
:100EB600F1003D08F301F3073C08F201F2070A12BC
:100EC6008A113E260A128A11710883120313B7018A
:100ED600B7077008B601B6070A30F0000030F10017
:100EE6003F08F301F3073E08F201F2070A128A11DE
:100EF600A4260A128A11710883120313B901B907CD
:100F06007008B801B8070A30F0000030F1003F0859
:100F1600F301F3073E08F201F2070A128A113E2690
:100F26000A128A11710883120313BB01BB077008EA
:100F3600BA01BA07081088143408203E84008313C7
:100F4600000886000830F0000730F1000A128A1106
:100F560016260A128A1183120313081488103608FB
:100F6600203E84008313000886000830F000073016
:100F7600F1000A128A1116260A128A118312031325
:100F8600081188153808203E84008313000886005F
:100F96000830F0000730F1000A128A1116260A12EC
:100FA6008A1183120313081588113A08203E84001B
:100FB6008313000886000830F0000730F1000A129B
:100FC6008A1116260A128A11013083120313BC07EE
:100FD6000318BD0A0030BD07FF30BE070318BF0A5D
:100FE600FF30BF07F62FBF1FF92FFA2F412F3A2FD9
:0A0FF6003A2F3A2F0A128A11002840
:00000001FF
