:060000000A128A110C2F08
:100E1800F001F10183010A128A11122F83120313C0
:100E2800870183160313870183120313880183162E
:100E3800031388013130831203139000232F0A1201
:100E48008A112D270A128A11232F232F0A128A1199
:100E58000028831203130C1C322F332F3B2F013031
:100E6800F0070318F10A0030F1070C103B2FF11BB3
:100E78003E2F3F2F532F7108803AFF0080307F02AA
:100E8800031D482F1E30700203184B2F4C2F532F71
:100E9800013083120313870009308800532F71082B
:100EA800803AFF0080307F02031D5C2F14307002EF
:100EB800031C5F2F602F742F7108803AFF00803069
:100EC8007F02031D692F1E30700203186C2F6D2FCF
:100ED800742F113083120313870009308800742F90
:100EE800F11B772F782F8C2F7108803AFF00803004
:100EF8007F02031D812F143070020318842F852F61
:100F08008C2F2130831203138700093088008C2F1F
:100F18007108803AFF0080307F02031D952F1E3034
:100F28007002031C982F992FAD2F7108803AFF008B
:100F380080307F02031DA22F3C3070020318A52FBA
:100F4800A62FAD2F093083120313870008308800BD
:100F5800AD2F7108803AFF0080307F02031DB62F45
:100F680032307002031CB92FBA2FCE2F7108803A85
:100F7800FF0080307F02031DC32F3C30700203182E
:100F8800C62FC72FCE2F09308312031387000930CD
:100F98008800CE2F7108803AFF0080307F02031D41
:100FA800D72F1E307002031CDA2FDB2FEF2F7108AA
:100FB800803AFF0080307F02031DE42F3230700238
:100FC8000318E72FE82FEF2F093083120313870048
:100FD8000F308800EF2F7108803AFF0080307F02C1
:100FE800031DF82F3C307002031CFB2FFC2FFF2F32
:080FF800F001F101FF2F0800D8
:00000001FF
