:060000000A128A11672FAD
:100EAC007E088A007F08820056270A128A11800069
:100EBC00840A04087D0603190034FF0A0319FE0A8C
:100ECC005A2F83134A30FD000730FE008D30FF008F
:100EDC00363084000A128A115A270A128A118301A9
:100EEC000A128A11A12F7B2F7B2F0130F0020030C8
:100EFC00031CF103F102FF307106031D872FFF3035
:100F0C007006031D8A2F8B2F7B2F8C2F08003F34EC
:100F1C0006345B344F3466346D347D3407347F349F
:100F2C006F340034003400340034003400340034A6
:100F3C00003400340034203084003630F2000408D1
:100F4C00F3001430F4007208840083130008F500D9
:100F5C00F20A7308840075088000F30AF40BA92FB9
:100F6C00831203138601831603138601831603175A
:100F7C0088018901C12F83120313B401B50135080F
:100F8C00803AFF0080307F02031DCE2F0A303402DE
:100F9C00031CD12FD22FD42FC12FC12F8312031397
:100FAC003408203E84008313000886006030F00073
:100FBC00EA30F1000A128A1179270A128A110130DB
:100FCC0083120313B4070318B50A0030B5073508AC
:100FDC00803AFF0080307F02031DF62F0A30340266
:100FEC00031CF92FFA2FD42FC12FC12FC12F0A1296
:040FFC008A1100282E
:00000001FF
