:060000000A128A11552EC0
:100CAA0083010A128A119B2E5B2E5B2E0130F00201
:100CBA000030031CF103F102FF307106031D672E99
:100CCA00FF307006031D6A2E6B2E5B2E6C2E0800F9
:100CDA00F4007418712E752E831203130914782EDA
:100CEA0083120313091072187B2E7F2E83120313AB
:100CFA008914822E83120313891073088800091538
:100D0A00E830F0000330F1000A128A1159260A125B
:100D1A008A11831203130911E830F0000330F1003D
:100D2A000A128A1159260A128A1108008312031319
:100D3A008501073083160313850083120313880184
:100D4A00831603138801831203138901831603137D
:100D5A0089018316031788018901F2013830F500E9
:100D6A007508F30000300A128A116D260A128A11D8
:100D7A00F2010F30F5007508F30000300A128A11EB
:100D8A006D260A128A11F201C030F5007508F300C7
:100D9A0000300A128A116D260A128A11D42E831281
:100DAA0003138515051385120512051CDD2EDE2E8B
:100DBA00F12EF2013130F5007508F30001300A1204
:100DCA008A116D260A128A11EA2E83120313051854
:100DDA00EF2EF02EEA2EF12E851CF42EF52E082F7A
:100DEA00F2013230F5007508F30001300A128A1157
:100DFA006D260A128A11012F831203138518062FF2
:100E0A00072F012F082F051D0B2F0C2F1F2FF20163
:100E1A003330F5007508F30001300A128A116D2685
:100E2A000A128A11182F8312031305191D2F1E2F58
:100E3A00182F1F2F0516051385128511051C262F3D
:100E4A00272F3A2FF2013430F5007508F3000130EC
:100E5A000A128A116D260A128A11332F831203137A
:100E6A000518382F392F332F3A2F851C3D2F3E2F47
:100E7A00512FF2013530F5007508F30001300A12DE
:100E8A008A116D260A128A114A2F831203138518B2
:100E9A004F2F502F4A2F512F051D542F552F682F92
:100EAA00F2013630F5007508F30001300A128A1192
:100EBA006D260A128A11612F831203130519662FF0
:100ECA00672F612F682F8516051305128511051CDA
:100EDA006F2F702F832FF2013730F5007508F3005A
:100EEA0001300A128A116D260A128A117C2F831286
:100EFA0003130518812F822F7C2F832F851C862FA1
:100F0A00872F9A2FF2013830F5007508F300013067
:100F1A000A128A116D260A128A11932F8312031359
:100F2A008518982F992F932F9A2F051D9D2F9E2F45
:100F3A00B12FF2013930F5007508F30001300A12B9
:100F4A008A116D260A128A11AA2F83120313051910
:100F5A00AF2FB02FAA2FB12F0517851205128511B1
:100F6A00051CB82FB92FCC2FF2012A30F5007508CD
:100F7A00F30001300A128A116D260A128A11C52F4E
:100F8A00831203130518CA2FCB2FC52FCC2F851C0C
:100F9A00CF2FD02FE32FF2013030F5007508F30080
:100FAA0001300A128A116D260A128A11DC2F831265
:100FBA0003138518E12FE22FDC2FE32F051DE62FFF
:100FCA00E72FD42EF2012330F5007508F300013023
:100FDA000A128A116D260A128A11F32F8312031339
:100FEA000519F82FF92FF32FD42ED42ED42ED42E60
:060FFA000A128A11002812
:00000001FF
