:060000000A128A11642CB3
:1008B80064008001840A04060319003404065D2CD0
:1008C8008313203084003C300A128A115C240A12F7
:1008D8008A1183010A128A11962E732C732C013007
:1008E800F0020030031CF103F102FF307106031D12
:1008F8007F2CFF307006031D822C832C732C842CD4
:100908000800F4007418892C8D2C83120313091421
:10091800902C8312031309107218932C972C8312AE
:10092800031389149A2C83120313891073088800FF
:1009380009156430F0000030F1000A128A117124A0
:100948000A128A118312031309116430F00000306F
:10095800F1000A128A1171240A128A110800F6019C
:10096800F31FB72CB82CC12CF209F309F20A0319AA
:10097800F30AF6010314F60DC12CF11FC42CC52C83
:10098800CB2CF009F109F00A0319F10ACB2C7108F4
:1009980070040319D02CD12C072DF5010314F50D83
:1009A800E12C01300310F00DF10DFF3E031DD62C94
:1009B8000130F4007408F507E12CF11FE42CE52C54
:1009C800D52CE72CE72C71087302031DED2C700859
:1009D8007202031CF02CF12CF82C7008F20271083A
:1009E800031CF303F302F82C01300310F10CF00C94
:1009F800FF3E031DF92C0130F502031D042D052DC2
:100A0800E72C072D072D7608031D0B2D112DF20954
:100A1800F309F20A0319F30A112D7308F101F1071A
:100A28007208F001F007182D0800F601F11F1D2DBE
:100A38001E2D272DF009F109F00A0319F10AF60114
:100A48000314F60D272DF31F2A2D2B2D352DF20912
:100A5800F309F20A0319F30A0130F4007408F606E0
:100A6800352DF701F8017108700403193C2D3D2D4F
:100A78007B2DF5010314F50D4D2D01300310F00DFC
:100A8800F10DFF3E031D422D0130F4007408F507F7
:100A98004D2DF11F502D512D412D532D532D01302A
:100AA8000310F70DF80DFF3E031D542D7108730256
:100AB800031D602D70087202031C632D642D6C2DBC
:100AC8007008F2027108031CF303F30277146C2D0B
:100AD80001300310F10CF00CFF3E031D6D2D0130A9
:100AE800F502031D782D792D532D7B2D7B2D76084E
:100AF800031D7F2D852DF709F809F70A0319F80A50
:100B0800852D7808F101F1077708F001F0078C2DA1
:100B180008007908831203139F008030831603139B
:100B28009F00831203131E08BC00BD013C08AC00E3
:100B38003D08AD00831603131E0883120313BC007F
:100B4800BD013C08AE003D08AF009F14AB2D9F18B7
:100B5800AE2DAF2DAB2DB02D2D08BD002C08BC003F
:100B68003C08BD00BC012E083C07A0002F08031854
:100B78002F0A3D07A100E830F0000330F1002108FA
:100B8800F301F3072008F201F2070A128A11192566
:100B98000A128A11710883120313B101B107700890
:100BA800B001B007E830F0000330F1002108F3018C
:100BB800F3072008F201F2070A128A11B3240A1275
:100BC8008A11710883120313B301B3077008B201C5
:100BD800B2076430F0000030F1003308F301F30786
:100BE8003208F201F2070A128A1119250A128A112B
:100BF800710883120313B501B5077008B401B4076F
:100C08006430F0000030F1003308F301F3073208D4
:100C1800F201F2070A128A11B3240A128A11710822
:100C280083120313B701B7077008B601B6070A3075
:100C3800F0000030F1003708F301F3073608F2013D
:100C4800F2070A128A1119250A128A1171088312E9
:100C58000313B901B9077008B801B8070A30F000E2
:100C68000030F1003708F301F3073608F201F20704
:100C78000A128A11B3240A128A1171088312031303
:100C8800BB01BB077008BA01BA07F2017B08BC00B8
:100C98003C08F30000300A128A1185240A128A11CE
:100CA800F201831203133008303EBC003C08F30005
:100CB80001300A128A1185240A128A11F20183125C
:100CC80003133408303EBC003C08F30001300A121C
:100CD8008A1185240A128A11F20183120313380833
:100CE800303EBC003C08F30001300A128A1185240A
:100CF8000A128A11F201831203133A08303EBC002B
:100D08003C08F30001300A128A1185240A128A115C
:100D1800831203132108FA01FA072008F901F907D9
:100D2800952E08008312031385012F3083160313B1
:100D38008500831203138601831603138601831229
:100D4800031388018316031388018312031389018F
:100D58008316031389018312031387018316031370
:100D680087011F308316031788008901F201383084
:100D7800FD007D08F30000300A128A1185240A124A
:100D88008A11F2010E30FD007D08F30000300A12CE
:100D98008A1185240A128A11D12E8130F900003077
:100DA800FA008030FB000030FC000A128A118D2501
:100DB8000A128A117A0883120313A301A307790878
:100DC800A201A2078530F9000030FA008530FB0047
:100DD8000030FC000A128A118D250A128A117A083D
:100DE80083120313A501A5077908A401A407893074
:100DF800F9000030FA008A30FB000030FC000A12CB
:100E08008A118D250A128A117A0883120313A70101
:100E1800A7077908A601A6079D30F9000030FA0057
:100E2800C030FB000030FC000A128A118D250A121E
:100E38008A117A0883120313A901A9077908A8015E
:100E4800A8079130F9000030FA00C530FB000030E7
:100E5800FC000A128A118D250A128A117A08831257
:100E68000313AB01AB077908AA01AA072308803A44
:100E7800FF0081307F02031D432FF5302202031C3F
:100E8800462F472F4C2F01308312031387004C2F16
:100E9800831203132308803AFF0081307F02031D69
:100EA800572FF430220203185A2F5B2F5F2F83121B
:100EB800031387015F2F831203132508803AFF006D
:100EC80081307F02031D6A2FF5302402031C6D2F29
:100ED8006E2F732F0230831203138700732F831230
:100EE80003132508803AFF0081307F02031D7E2FFF
:100EF800F43024020318812F822F862F83120313C4
:100F08008701862F831203132708803AFF00813058
:100F18007F02031D912FF5302602031C942F952F75
:100F28009A2F04308312031387009A2F8312031316
:100F38002708803AFF0081307F02031DA52FF43077
:100F480026020318A82FA92FAD2F83120313870198
:100F5800AD2F831203132908803AFF0081307F02E6
:100F6800031DB82FF5302802031CBB2FBC2FC12F3F
:100F78000830831203138700C12F83120313290833
:100F8800803AFF0081307F02031DCC2FF430280205
:100F98000318CF2FD02FD42F831203138701D42FF8
:100FA800831203132B08803AFF0081307F02031D50
:100FB800DF2FF5302A02031CE22FE32FE82F0F3032
:100FC800831203138700E82F831203132B08803A38
:100FD800FF0081307F02031DF32FF4302A0203182B
:100FE800F62FF72FD12E831203138701D12ED12E7E
:080FF800D12E0A128A11002813
:00000001FF
