:100000000A128A11FC2F00308A000408840A820731
:100010000034743469346D3465343A342034003437
:100AC400831203138C1D672D682D622D8C11080071
:100AD4008316031391140A128A1162250A128A11C9
:100AE40008008316031311140A128A1162250A12CC
:100AF4008A1108008316031311150A128A1162253C
:100B04000A128A1108000130F0020030031CF103BC
:100B1400F102700A031D922D710A031D922D932D6B
:100B2400852D0800F0008316031311177008831233
:100B34000313930083160313111BA12DA22D9C2DC7
:100B44000A128A1162250A128A11080002307006FC
:100B54007104031DAE2DAF2DB32D8316031391160F
:100B6400B62D831603139112141CB92DBA2DB62D6C
:100B7400831203131308F2007208F300141383168C
:100B840003131116141073080800F800E32D013044
:100B9400F2000030F3000030F400F500780884001F
:100BA4000A128A1103200A128A11F7007708F60044
:100BB4000A128A11F0250A128A110130F700770807
:100BC400F807780884000A128A1103200A128A118D
:100BD400003A031DEE2DEF2DC92D08007218F32DD8
:100BE400F72D831203130914FA2D8312031309102A
:100BF4007418FD2D012E831203138914042E8312FD
:100C040003138910760888000915E830F0000330D2
:100C1400F1000A128A1185250A128A11831203131C
:100C24000911E830F0000330F1000A128A11852519
:100C34000A128A11080018308316031387008312DE
:100C440003138701023083160313850083120313F1
:100C54008501831603138801831203138801831605
:100C6400031389018312031389018316031788016F
:100C740089018316031394172830831203139400F5
:100C84000030F200F3000030F400F5003830A0002A
:100C94002008F6000A128A11F0250A128A1100307F
:100CA400F200F3000030F400F5000E308312031359
:100CB400A0002008F6000A128A11F0250A128A11EF
:100CC40083120313851C672E682E992E0A128A112B
:100CD40073250A128A11D0300A128A1194250A1235
:100CE4008A1100300A128A1194250A128A110030DE
:100CF4000A128A1194250A128A1100300A128A11E2
:100D040094250A128A1100300A128A1194250A12B3
:100D14008A110A128A117C250A128A11E830F0001D
:100D24000330F1000A128A1185250A128A110A1267
:100D34008A1173250A128A11D0300A128A11942555
:100D44000A128A1100300A128A1194250A128A1191
:100D54000A128A116A250A128A11D1300A128A11DA
:100D640094250A128A1183120313A901831603130B
:100D74009115831203132908A000A1012008F00093
:100D84002108F1000A128A11A8250A128A11831275
:100D94000313A2002908233E840022088313800041
:100DA4000130A0002008A90703302902031CDB2E10
:100DB400DC2EB82E0A128A117C250A128A112330DD
:100DC4000A128A11F4260A128A11E830F00003305C
:100DD400F1000A128A1185250A128A11622E0A125A
:100DE4008A110028FB000030F200F3000030F40008
:100DF400F5008030F9007908F6000A128A11F0250E
:100E04000A128A1101300A128A11C7250A128A119C
:100E14000130F2000030F3000030F400F5007B08EC
:100E2400023E840083130008F90004300310F90C17
:100E3400FF3E031D182F79080339303EFA007A0863
:100E4400F6000A128A11F0250A128A110130F20002
:100E54000030F3000030F400F5007B08023E84000B
:100E6400831300080F39303EF9007908F6000A129E
:100E74008A11F0250A128A110130F2000030F300C1
:100E84000030F400F5003A30F9007908F6000A124F
:100E94008A11F0250A128A110130F2000030F300A1
:100EA4000030F400F5007B0A840083130008F90085
:100EB40004300310F90CFF3E031D5B2F790807393A
:100EC400303EFA007A08F6000A128A11F0250A1256
:100ED4008A110130F2000030F3000030F400F50014
:100EE4007B0A8400831300080F39303EF900790827
:100EF400F6000A128A11F0250A128A110130F20052
:100F04000030F3000030F400F5003A30F9007908BD
:100F1400F6000A128A11F0250A128A110130F20031
:100F24000030F3000030F400F5007B0884008313E4
:100F34000008F90004300310F90CFF3E031D9D2F37
:100F440079080739303EFA007A08F6000A128A1145
:100F5400F0250A128A110130F2000030F30000304B
:100F6400F400F5007B088400831300080F39303E39
:100F7400F9007908F6000A128A11F0250A128A117A
:100F84007B08023E8400073083130006031DCB2F29
:100F9400CC2FDF2F7B0A840033300006031DD32FB0
:100FA400D42FDF2F7B0884000008031DDA2FDB2FEA
:100FB400DF2F83120313071787137B08023E840075
:100FC40007300006031DE72FE82FFB2F7B0A840060
:100FD40036300006031DEF2FF02FFB2F7B08840013
:100FE4000008031DF62FF72FFB2F8312031307139B
:0C0FF4008717080083010A128A111D2EC5
:08400000FF3FFF3FFF3FFF3FC0
:04400E00FF3FFF3F32
:00000001FF
