:100000000A128A11502D00308A000408840A8207DF
:100010000034743469346D3465343A342034003437
:0E00200044346134743465343A34203400348E
:100AA00083010A128A110E2E552D831203138C1DF9
:100AB0005A2D5B2D552D8C1108008316031311142C
:100AC0000A128A1154250A128A1108008316031388
:100AD00011150A128A1154250A128A110800831668
:100AE000031391140A128A1154250A128A1108005C
:100AF0007A2D7A2D0130F0020030031CF103F1024F
:100B0000FF307106031D862DFF307006031D892DF1
:100B10008A2D7A2D8B2D0800F000831603131117F0
:100B20007008831203139300952D83160313111B72
:100B30009A2D9B2D952D9C2D0A128A1154250A124F
:100B40008A110800063070067104031DA82DA92D16
:100B5000AD2D831603139116B22D83160313911234
:100B6000B22DB22D141CB52DB62DB22DB72D83127A
:100B700003131308F2007208F3001413831603130F
:100B8000111614107308C42D0800F3007318C92D32
:100B9000CD2D831203130914D02D831203130910D2
:100BA0007208880089146430F0000030F1000A12E5
:100BB0008A1178250A128A1183120313891064306E
:100BC000F0000030F1000A128A1178250A128A1109
:100BD0000800F500002E750884000A128A1103200F
:100BE0000A128A11F4007408F20001300A128A1104
:100BF000C5250A128A110130F4007408F507002E89
:100C0000750884000A128A1103200A128A1100381A
:100C1000031D0B2E0C2EEB2D0D2E08001830831605
:100C200003138700831203138701831603138801BC
:100C3000831203138801831603138901831203139C
:100C400089018316031788018901831603139417FA
:100C50002830831203139400043083160313930087
:100C60003830F9007908F20000300A128A11C525DF
:100C70000A128A110E30F9007908F20000300A12C7
:100C80008A11C5250A128A11452E0A128A115D257C
:100C90000A128A11D0300A128A118C250A128A117E
:100CA00000300A128A118C250A128A110A128A113E
:100CB0006F250A128A11D1300A128A118C250A1264
:100CC0008A1183120313A70107302702031C692E20
:100CD0006A2E6C2E912E912E83160313911583127A
:100CE00003132708F900FA017908F0007A08F100E7
:100CF0000A128A11A2250A128A11FB008312031319
:100D00002708203E84007B08831380000130F9000F
:100D10007908A70707302702031C8F2E902E6C2E10
:100D2000912E0A128A1166250A128A1120300A129F
:100D30008A11AA260A128A11E830F0000330F10065
:100D40000A128A1178250A128A11452E452E0A1296
:100D50008A110028F8008030F6007608F200003092
:100D60000A128A11C5250A128A1101300A128A1143
:100D7000E9250A128A117808023E840083130008CC
:100D8000F60004300310F60CFF3E031DC22E760859
:100D90000339303EF7007708F20001300A128A1159
:100DA000C5250A128A117808023E840083130008C0
:100DB0000F39303EF6007608F20001300A128A112F
:100DC000C5250A128A113A30F6007608F200013081
:100DD0000A128A11C5250A128A117808013E840078
:100DE00083130008F60004300310F60CFF3E031DC9
:100DF000F42E76080739303EF7007708F20001300C
:100E00000A128A11C5250A128A117808013E840047
:100E1000831300080F39303EF6007608F2000130E7
:100E20000A128A11C5250A128A113A30F60076088C
:100E3000F20001300A128A11C5250A128A117808B7
:100E4000840083130008F60004300310F60CFF3E04
:100E5000031D252F76080739303EF7007708F2008A
:100E600001300A128A11C5250A128A1178088400F5
:100E7000831300080F39303EF6007608F200013087
:100E80000A128A11C5250A128A117808023E8400C6
:100E900083130008123A031D4E2F4F2F632F78083B
:100EA000013E84000008113A031D572F582F632F6D
:100EB000780884008008031D5E2F5F2F632F831244
:100EC00003130714632FC030F6007608F2000030D9
:100ED0000A128A11C5250A128A1108300A128A11CB
:100EE000E9250A128A117808043E84008313000859
:100EF000F60004300310F60CFF3E031D7A2F76082F
:100F00000339303EF7007708F20001300A128A11E7
:100F1000C5250A128A117808043E8400831300084C
:100F20000F39303EF6007608F20001300A128A11BD
:100F3000C5250A128A112F30F6007608F20001301A
:100F40000A128A11C5250A128A117808053E840002
:100F500083130008F60004300310F60CFF3E031D57
:100F6000AC2F76080139303EF7007708F2000130E7
:100F70000A128A11C5250A128A117808053E8400D2
:100F8000831300080F39303EF6007608F200013076
:100F90000A128A11C5250A128A112F30F600760826
:100FA000F20001300A128A11C5250A128A11780846
:100FB000063E840083130008F60004300310F60C8C
:100FC000FF3E031DDE2F76080F39303EF70077080D
:100FD000F20001300A128A11C5250A128A11780816
:100FE000063E8400831300080F39303EF600760871
:100FF000F20001300A128A11C5250A128A1108006E
:00000001FF
