:060000000A128A11A52F6F
:100F4A00F001F10183010A128A11AB2F83120313F4
:100F5A00870183160313870107308100B42F831298
:100F6A000313071487100530F2000030F3000A1249
:100F7A008A11D3270A128A118312031307108714BE
:100F8A000230F2000030F3000A128A11D3270A1243
:100F9A008A11B42FB42F0A128A110028F12F0B1DBF
:100FAA00D72FD82FDF2F0130F0070318F10A0030AE
:100FBA00F107DF2F0B110F3070067104031DE62FA6
:100FCA00E72FF12FF001F101FF30F2070318F30ABE
:100FDA00FF30F307F12FF12F7308803AFF008030BA
:100FEA007F02031DFA2F013072020318FD2FFE2F14
:060FFA00D42FFF2F0800B8
:00000001FF
