:060000000A128A112B2FE9
:100E560083010A128A11A42F312F312F0130F0029B
:100E66000030031CF103F102FF307106031D3D2F14
:100E7600FF307006031D402F412F312F422F0800EF
:100E8600831203130915E830F0000330F1000A124B
:100E96008A112F270A128A11831203130911E830C7
:100EA600F0000330F1000A128A112F270A128A1164
:100EB60008005D2F831203138C1D622F632F5D2F95
:100EC600642F1308F6007608F7008C11F2017708F4
:100ED600F6007608F30001300A128A1175270A1205
:100EE6008A110800F5007518792F7D2F83120313D8
:100EF6000914802F8312031309107218832F872F6A
:100F06008312031389148A2F83120313891073081B
:100F160086000A128A1143270A128A117308F400FE
:100F260003300310F40DFF3E031D942F0310740DC0
:100F36008312031386000A128A1143270A128A11A2
:100F460008008312031385012030831603138500DE
:100F56008312031387011830831603138700831245
:100F66000313860183160313860183120313890173
:100F76008316031389018316031788018901F20179
:100F86000230F8007808F30000300A128A1175273B
:100F96000A128A11F2012830F8007808F3000030AE
:100FA6000A128A1175270A128A11F2010F30F80007
:100FB6007808F30000300A128A1175270A128A117E
:100FC600F2018030F8007808F30000300A128A1126
:100FD60075270A128A11343083120313940083167C
:100FE60003139401F62F0A128A115C270A128A113A
:0A0FF600F62FF62F0A128A110028C8
:00000001FF
