:060000000A128A11372FDD
:100E6E00F001F101F201F30183010A128A119D2FA3
:100E7E007408831203139300442F8C1D472F482FA1
:100E8E00442F8C11080083160313141C4F2F502F60
:100E9E009C2F1410831203131308F400F501740829
:100EAE00F2007508F300013072067304031D602F03
:100EBE00612F672F08140812881108118810672FE8
:100ECE00023072067304031D6D2F6E2F742F88145B
:100EDE000812881108110810742F0330720673045B
:100EEE00031D7A2F7B2F812F0815081288110810E9
:100EFE008810812F043072067304031D872F882FEC
:100F0E008E2F881508120810081188108E2F0530A4
:100F1E0072067304031D942F952F9C2F081608102C
:100F2E008811081188109C2F9C2F080010308316F2
:100F3E00031387008312031387018316031385019E
:100F4E00831203138501831603138801831203137F
:100F5E008801831603178801890120308312031339
:100F6E009400831603139401BC2F83120313051CE4
:100F7E00C12FC22FC72F0130F0000030F100C72F54
:100F8E00851CCA2FCB2FD02F0230F0000030F1007D
:100F9E00D02F051DD32FD42FD92F0330F0000030C2
:100FAE00F100D92F851DDC2FDD2FE22F0430F0004C
:100FBE000030F100E22F051EE52FE62FEB2F053056
:100FCE00F0000030F100EB2F7108F501F507700805
:100FDE00F401F4070A128A113F270A128A110A1223
:100FEE008A114A270A128A11BC2FBC2F0A128A11A3
:020FFE000028C9
:00000001FF
