:060000000A128A117C2D9A
:100AE80064008001840A0406031900340406752D85
:100AF800FC01FD0183132030840034300A128A116E
:100B080074250A128A1183010A128A11CC2D8D2D9F
:100B18008D2D0130F0020030031CF103F102FF308B
:100B28007106031D992DFF307006031D9C2D9D2D08
:100B38008D2D9E2D08007218A22DA62D8312031349
:100B48000914A92D8312031309107418AC2DB02DA4
:100B5800831203138914B32D8312031389107608A3
:100B6800880009150A30F0000030F1000A128A11D5
:100B78008B250A128A118312031309110A30F00017
:100B88000030F1000A128A118B250A128A11080016
:100B98000430831603138600831203138601831619
:100BA8000313880183120313880183160313890131
:100BB8008312031389018316031788010130890002
:100BC8000030F2000030F3000030F4000030F5008F
:100BD8003830FB007B08F6000A128A119F250A129A
:100BE8008A110030F2000030F3000030F4000030C9
:100BF800F5000E30FB007B08F6000A128A119F25CB
:100C08000A128A11072E0A128A11EB260A128A1171
:100C1800072E072E0A128A110028F601F31F152E37
:100C2800162E1F2EF209F309F20A0319F30AF60128
:100C38000314F60D1F2EF11F222E232E292EF00944
:100C4800F109F00A0319F10A292E71087004031931
:100C58002E2E2F2E652EF5010314F50D3F2E013093
:100C68000310F00DF10DFF3E031D342E0130F4008A
:100C78007408F5073F2EF11F422E432E332E452EC2
:100C8800452E71087302031D4B2E70087202031C57
:100C98004E2E4F2E562E7008F2027108031CF303D5
:100CA800F302562E01300310F10CF00CFF3E031D29
:100CB800572E0130F502031D622E632E452E652E38
:100CC800652E7608031D692E6F2EF209F309F20AC4
:100CD8000319F30A6F2E7308F101F1077208F00186
:100CE800F007762E0800F601F11F7B2E7C2E852E4C
:100CF800F009F109F00A0319F10AF6010314F60DD7
:100D0800852EF31F882E892E932EF209F309F20AF5
:100D18000319F30A0130F4007408F606932EF7015C
:100D2800F8017108700403199A2E9B2ED92EF5012B
:100D38000314F50DAB2E01300310F00DF10DFF3E3D
:100D4800031DA02E0130F4007408F507AB2EF11F27
:100D5800AE2EAF2E9F2EB12EB12E01300310F70DFF
:100D6800F80DFF3E031DB22E71087302031DBE2E3F
:100D780070087202031CC12EC22ECA2E7008F2021D
:100D88007108031CF303F3027714CA2E0130031011
:100D9800F10CF00CFF3E031DCB2E0130F502031DB4
:100DA800D62ED72EB12ED92ED92E7608031DDD2E9C
:100DB800E32EF709F809F70A0319F80AE32E780869
:100DC800F101F1077708F001F007EA2E0800A330D7
:100DD800831203139F008030831603139F0083122E
:100DE80003131E08F900FA017908B0007A08B10067
:100DF800831603131E08F900FA01790883120313F6
:100E0800B2007A08B3003108FA003008F90079080E
:100E1800FA00F90132087907A00033080318330AE9
:100E28007A07A100E830F0000330F1002108F3014F
:100E3800F3072008F201F2070A128A1177260A122C
:100E48008A11710883120313A701A7077008A60166
:100E5800A607E830F0000330F1002108F301F3079A
:100E68002008F201F2070A128A1111260A128A11C1
:100E78007108FD01FD077008FC01FC076430F000F3
:100E88000030F1007D08F301F3077C08F201F20756
:100E98000A128A1177260A128A117108831203131B
:100EA800A901A9077008A801A8076430F00000305C
:100EB800F1007D08F301F3077C08F201F2070A123A
:100EC8008A1111260A128A11710883120313AB01C1
:100ED800AB077008AA01AA070A30F0000030F10039
:100EE8002B08F301F3072A08F201F2070A128A1104
:100EF80077260A128A11710883120313AD01AD0710
:100F08007008AC01AC070A30F0000030F1002B0883
:100F1800F301F3072A08F201F2070A128A111126CF
:100F28000A128A11710883120313AF01AF07700800
:100F3800AE01AE070030F2000030F3000030F400DC
:100F48000030F5008030F9007908F6000A128A119D
:100F58009F250A128A110130F2000030F300003098
:100F6800F4000030F500831203132608303EF90020
:100F78007908F6000A128A119F250A128A1101308F
:100F8800F2000030F3000030F4000030F500831266
:100F980003132808303EF9007908F6000A128A116E
:100FA8009F250A128A110130F2000030F300003048
:100FB800F4000030F500831203132C08303EF900CA
:100FC8007908F6000A128A119F250A128A1101303F
:100FD800F2000030F3000030F4000030F500831216
:100FE80003132E08303EF9007908F6000A128A1118
:080FF8009F250A128A1108006E
:00000001FF
