:060000000A128A113C2FD8
:100E56007E088A007F0882002B270A128A118000EA
:100E6600840A04087D0603190034FF0A0319FE0AE2
:100E76002F2F83133430FD000730FE004E30FF0065
:100E8600203084000A128A112F270A128A11830140
:100E96000A128A11622F3F3406345B344F346634AB
:100EA6006D347D3407347F346F34003400340034BD
:100EB600003400340034003400340034003483122B
:100EC600031388010F30831603138800831203135C
:100ED6008601831603138601831603178801890189
:100EE600742F831203130816881308138812081C1C
:100EF6007D2F7E2F862F21088600812F0818842FAC
:100F0600852F812F862F881C892F8A2F922F2208C2
:100F160086008D2F8818902F912F8D2F922F081DC8
:100F2600952F962F9E2F23088600992F08199C2F00
:100F36009D2F992F9E2F881DA12FA22FAA2F2408FF
:100F46008600A52F8819A82FA92FA52FAA2F8816A6
:100F5600881308130812081CB12FB22FBA2F2508C0
:100F66008600B52F0818B82FB92FB52FBA2F881CB1
:100F7600BD2FBE2FC62F26088600C12F8818C42F66
:100F8600C52FC12FC62F081DC92FCA2FD22F27083C
:100F96008600CD2F0819D02FD12FCD2FD22F881D07
:100FA600D52FD62FDE2F28088600D92F8819DC2FBB
:100FB600DD2FD92FDE2F0817881388120812081C78
:100FC600E52FE62FEE2F29088600E92F0818EC2FCB
:100FD600ED2FE92FEE2F881CF12FF22F742F20080A
:100FE6008600F52F8818F82FF92FF52F742F742FF8
:0A0FF600742F742F0A128A110028CC
:00000001FF
